:100000000C9481000C949E000C949E000C949E0015
:100010000C946E020C945A040C949E000C940302EF
:100020000C949E000C949E000C949E000C94B203C1
:100030000C949E000C949E000C949E000C949E00C8
:100040000C949E000C949E000C949E000C949E00B8
:100050000C949E000C949E000C949E000C949E00A8
:100060000C949E000C949E00B705B905B905B9051E
:10007000B905B905B905B905B905B905B905B90590
:10008000B905B905B905B905B905B905B905B90580
:10009000AF05B905B905B905B905B905B905B9057A
:1000A000B905B905B905B905B905B905B905B90560
:1000B000B905B905B105B905B905B905B905B90558
:1000C000B305B905B905B505B905B905B905B9054A
:1000D000AB05B905B905B905B905B905B905B9053E
:1000E000B905B905B905B905B905B905B905B90520
:1000F000B905B905BB05B905B905B905B905B9050E
:10010000AD0511241FBECFEFD8E0DEBFCDBF15E097
:10011000A0E0B1E0EEE6F3E102C005900D92AC354F
:10012000B107D9F725E0ACE5B5E001C01D92A236D4
:10013000B207E1F70E9497040C94B5090C940000F3
:1001400084B18C6284B980E58CBD089595B19B7FA4
:1001500095B98EBD0DB407FEFDCF85B1846085B91C
:100160000895CF93DF93CDB7DEB7C255D1090FB64F
:10017000F894DEBF0FBECDBF82E5E7E0F1E0DE011F
:10018000119601900D928A95E1F72FEF85EA9EE096
:10019000215080409040E1F700C000008BB11BB8B7
:1001A0002FE789EA93E0215080409040E1F700C0BA
:1001B000000085B1846085B92FE789EA93E021507A
:1001C00080409040E1F700C000008BB184608BB9A3
:1001D0002FE789EA93E0215080409040E1F700C08A
:1001E00000008BB188608BB92FE789EA93E021503A
:1001F00080409040E1F700C0000062E070E0CE0176
:1002000001960E94B0042FE789EA93E021508040D4
:100210009040E1F700C000006AE070E0CE01059672
:100220000E94B0042FE789EA93E02150804090407B
:10023000E1F700C0000067E170E0CE0149960E943E
:10024000B0042FE789EA93E0215080409040E1F725
:1002500000C0000066E070E0CE01895B9F4F0E9405
:10026000B004CE5ADF4F0FB6F894DEBF0FBECDBF3D
:10027000DF91CF910895CF92EF92FF920F931F934A
:10028000CF93DF93CDB7DEB72F970FB6F894DEBFCD
:100290000FBECDBF0FB6F894A8958091600088611D
:1002A00080936000109260000FBE8AB18C608AB9A2
:1002B0000E94A00078940E94B10000E010E008C005
:1002C0008FEF0E94A6008FEF0E94A6000F5F1F4FC6
:1002D000003C8AE51807A4F38FE0E5E6F1E0DE01D3
:1002E000119601900D928A95E1F70F2EF3E0CF2E33
:1002F000F02DEE24EA94FE2C00E018EF22E046E018
:1003000064E0CE0101960E9477058AB18D7F8AB99B
:100310008BB182608BB984B18D7F84B985B18260E5
:1003200085B980E480937C0087EC80937A0087B164
:100330008E6187B97894EFE6F0E080818D7F8083CD
:10034000109289001092880010928000E1E8F0E09D
:1003500010821092850010928400808188608083D2
:10036000808185608083E0E7F0E080818083109267
:10037000B300E0EBF0E08081826080831082E1EBEB
:10038000F0E010821092B200808182608083E8E603
:10039000F0E0808184608083ADE6B0E08C91826083
:1003A0008C93808182608083ECE6F0E080818062C3
:1003B000808300002F960FB6F894DEBF0FBECDBF2E
:1003C000DF91CF911F910F91FF90EF90CF90089503
:1003D00088B1806188B985E38A95F1F7000088B11A
:1003E0008F7E88B90895E0E7F0E0808182608083A5
:1003F00083E78093B3000895E0E7F0E08081808395
:100400001092B30008951F920F920FB60F9211240D
:100410008F939F9380915D0590915E0501969093D7
:100420005E0580935D059F918F910F900FBE0F9099
:100430001F901895CF92EF92FF920F931F93CF9337
:10044000DF938230910589F02CF4009751F00197E9
:1004500029F11FC08430910591F064F00597A1F057
:1004600018C0C4E7D1E0CE011DC0C2E9D1E081EAE5
:1004700091E018C0C0EBD1E08FEB91E013C0CEEC5F
:10048000D1E08DED91E00EC0CCEED1E08BEF91E0AC
:1004900009C0C4E7D1E08AE092E004C0C4E7D1E03B
:1004A00083E891E00F2EF3E0CF2EF02DEE24EA94B6
:1004B000FE2C03E110E022E04EE564E00E947705A7
:1004C00022E042E764E0CE010E947705DF91CF9100
:1004D0001F910F91FF90EF90CF9008951F920F9270
:1004E0000FB60F9211242F933F934F935F936F9307
:1004F0007F938F939F93AF93BF93EF93FF938091DD
:100500005C0581110AC010925E0510925D050E9483
:10051000F30181E080935C0512C08091000190E0BE
:1005200020915D0530915E052817390720F483E09E
:1005300090E00E941A020E94FC0110925C05FF915B
:10054000EF91BF91AF919F918F917F916F915F914B
:100550004F913F912F910F900FBE0F901F901895C4
:10056000AF92BF92CF92EF92FF920F931F93CF93D0
:10057000DF9300D000D000D0CDB7DEB7AC019C0136
:10058000A9E8B8E80E946E06FC01F695E795F29599
:10059000E295EF70EF27FF70EF272CE32E9FC0014D
:1005A0002F9F900D1124481B590B55275F934F9394
:1005B000FF27FF93EF9389E192E09F938F931F9220
:1005C00086E08F93CE0101965C019F938F930E94EA
:1005D000AD060F2EF3E0CF2EF02DEE24EA94FE2C84
:1005E00000E010E024E04CE269E1C5010E947705DB
:1005F0000FB6F894DEBF0FBECDBF26960FB6F894A7
:10060000DEBF0FBECDBFDF91CF911F910F91FF9045
:10061000EF90CF90BF90AF900895EAE7F0E080812F
:100620008064808380917A0086FDFCCF8091780081
:10063000909179000895CF93DF9300D000D01F925E
:10064000CDB7DEB782E090E00E941A0264C00E943B
:100650000D038038910538F486E090E09093060110
:100660008093050147C08F3F910509F038F48CED68
:1006700095E090930601809305013CC0803821E00D
:10068000920738F488E097E0909306018093050183
:1006900031C0811522E0920738F484E398E090930A
:1006A00006018093050126C0803822E0920738F4C5
:1006B00080E699E090930601809305011BC08115A7
:1006C00023E0920738F48CE89AE090930601809337
:1006D000050110C08038934038F488EB9BE090937C
:1006E00006018093050106C084EE9CE0909306010C
:1006F0008093050180910501909106010E94B0024E
:100700004AE050E0BE016F5F7F4F809105019091FC
:1007100006010E947D0619999ACF8091050190915A
:1007200006019093600580935F0580E090E00E9451
:100730001A0288B1846088B9EFE6F0E080818260B7
:10074000808388E09DE3909389008093880083E014
:10075000809361050F900F900F900F900F90DF9195
:10076000CF9108951F920F920FB60F9211242F93DD
:100770003F934F935F936F937F938F939F93AF9329
:10078000BF93EF93FF9380916105833011F40E9432
:10079000E80180915F059091600501979093600555
:1007A00080935F050E94B00280915F059091600583
:1007B000892B09F06EC0809161058530B1F128F474
:1007C000833051F08430D9F064C0863009F440C0E1
:1007D000873009F450C05DC088B18B7F88B988B17B
:1007E0008D7F88B988B1886088B981E090E0909366
:1007F000600580935F0584E0809361054AC088B1FD
:10080000826088B988B1877F88B98091030190910F
:1008100004019093600580935F0584E090E00E945E
:100820001A0285E08093610534C088B18B7F88B956
:1008300088B18D7F88B988B1886088B981E090E0FF
:100840009093600580935F0586E08093610521C0E9
:1008500088B1877F88B980910101909102019093BE
:10086000600580935F0585E090E00E941A0287E0B2
:10087000809361050EC0EFE6F0E080818D7F80837C
:10088000109289001092880082E0809361050E9496
:100890001B03FF91EF91BF91AF919F918F917F913A
:1008A0006F915F914F913F912F910F900FBE0F90DD
:1008B0001F9018951F920F920FB60F9211242F932D
:1008C0003F934F935F936F937F938F939F93AF93D8
:1008D000BF93EF93FF93EFE6F0E080818D7F8083FD
:1008E00010928900109288001092600510925F05A6
:1008F00082E08093610588B18D7F88B988B18B7F54
:1009000088B988B1877F88B90E941B03FF91EF9156
:10091000BF91AF919F918F917F916F915F914F9117
:100920003F912F910F900FBE0F901F90189510922E
:1009300061050E943B0181E08093610581E090E0C8
:100940000E941A021999FECF82E08093610582E02D
:1009500090E00E941A02199BFECF0E941B03FFCF5A
:10096000CF92DF92EF92FF920F931F93CF93DF937B
:100970006C017B0100E010E013C08BB184608BB987
:10098000E801CC0FDD1FCC0DDD1D89810E94A60082
:1009900088810E94A6008BB18B7F8BB90F5F1F4FA0
:1009A0000E151F0550F3DF91CF911F910F91FF900E
:1009B000EF90DF90CF9008950F93CF93DF93CDB753
:1009C000DEB72C970FB6F894DEBF0FBECDBF9CE00C
:1009D000E9E5F1E0DE01119601900D929A95E1F7BB
:1009E0000230B1F1033009F44EC0013089F090E0DB
:1009F00092619E838D8350E0556158874F8370E0EC
:100A000073617A87698730E036613C872B8755C0F0
:100A1000E3E0F8E1FC83EB83E3E8F0E0DF01A81B0F
:100A2000B109CD0192619E838D83E41BF109F561CB
:100A3000F887EF838FEA90E0AC01461B51095361C0
:100A40005A874987821B910996619C878B8735C09D
:100A5000E5E0F8E1FC83EB83E3E8F0E0DF01A61BCF
:100A6000B109BD0172617E836D83E21BF109F561FD
:100A7000F887EF8390E093619A87898750E0566109
:100A80005C874B871AC0E6E0F8E1FC83EB8370E0FB
:100A900072617E836D8330E0356138872F832FEA62
:100AA00030E0B901681B7109CB0193619A8789878E
:100AB000241B310936613C872B8766E070E0CE014C
:100AC00001960E94B0042C960FB6F894DEBF0FBEBC
:100AD000CDBFDF91CF910F910895CF93C82F892F6C
:100AE0000E94A6008C2F0E94A600CF9108952F92FD
:100AF0003F924F925F926F927F928F929F92AF92AE
:100B0000BF92CF92DF92EF92FF920F931F93CF93FA
:100B1000DF93CDB7DEB72A970FB6F894DEBF0FBECE
:100B2000CDBF9C838B83862F4D83822E902E712E7A
:100B3000C886EB81FC8140811982AFC04B37E0F061
:100B400050E0FA01E05BF109ED34F10590F4EC5C62
:100B5000FF4F0C9468064FE70FC041E80DC042E814
:100B60000BC043E809C044E807C045E805C046E8B3
:100B700003C04FE301C040E840524E83982D990FC7
:100B8000980D292F220F280F2A83282D220F220F9C
:100B9000220F280DFD812F0F21504A8141500885D9
:100BA0006F2F0E94DC042E81822F90E0FC01EE0F5B
:100BB000FF1FEE0FFF1FEE0FFF1FFF83EE83412C81
:100BC000512C5DC0EE81FF81E40DF51DEC5DFD4F04
:100BD0006080F8E04F16510408F0612CAA24A39419
:100BE000B12C44C0082D10E021E030E03A8729877D
:100BF00009C08E2D9F2D0E946D0589859A850196CD
:100C00009A878987E985FA850E171F0794F76894F4
:100C1000CC24C2F8D12C25C0862D90E00C2C02C02B
:100C2000959587950A94E2F780FF03C0392C272C0D
:100C300002C03E2C2F2C21E030E03A87298709C0E2
:100C4000832D922D0E946D0589859A8501969A873C
:100C50008987E985FA850E171F0794F7F1E0CF1A07
:100C6000D108DD20CCF62FEFA21AB20A882D90E031
:100C70008A159B0508F0B6CF3FEF431A530A89E067
:100C80004816510408F49ECF99819F5F9983EB81A8
:100C9000FC81E90FF11D40818A8141114FCF2A96D5
:100CA0000FB6F894DEBF0FBECDBFDF91CF911F917D
:100CB0000F91FF90EF90DF90CF90BF90AF909F90FB
:100CC0008F907F906F905F904F903F902F900895FE
:100CD000EE0FFF1F0590F491E02D0994A29FB00143
:100CE000B39FC001A39F700D811D1124911DB29F60
:100CF000700D811D1124911D08954532510520F478
:100D0000423010F00C948806FB011082CB0108954C
:100D1000BB274A3031F4992322F4BDE290958195A6
:100D20009F4F0C949406BB27FB015527AA27880FD9
:100D3000991FAA1FA41710F0A41B83955051B9F74F
:100D4000A05DAA3308F0A95DA193009779F7B111CE
:100D5000B1931192CB010C94D408AEE0B0E0E3EB78
:100D6000F6E00C948C090D891E898F89988D26E0F8
:100D70002C831A83098397FF02C080E090E80197D3
:100D80009E838D83AE01455E5F4F698D7A8DCE0166
:100D900001960E94DD064D815E8157FD0AC02F81BC
:100DA0003885421753070CF49A01F801E20FF31F3C
:100DB00010822E96E4E00C94A809ABE0B0E0E3EEDC
:100DC000F6E00C947E096C017B018A01FC0117821C
:100DD0001682838181FFCCC1CE0101963C01F601D0
:100DE0009381F70193FD859193FF81917F01882382
:100DF00009F4BAC1853239F493FD859193FF81914D
:100E00007F01853229F4B60190E00E94E408E7CF23
:100E1000912C212C312CFFE1F315D8F08B3279F095
:100E200038F4803279F08332A1F4232D20611DC083
:100E30008D3261F0803369F4232D216016C0832D3B
:100E40008260382EE32DE4603E2E2AC0F32DF86038
:100E50001DC037FC2DC020ED280F2A3040F08E3207
:100E6000B9F436FC81C1232D2064322E19C036FE20
:100E700006C08AE0989E200D1124922E11C0EAE04F
:100E80002E9E200D1124222EF32DF0623F2E08C03D
:100E90008C3621F4832D8068382E02C0883641F4C8
:100EA000F70193FD859193FF81917F018111B3CF6C
:100EB000982F9F7D9554933028F40C5F1F4F9FE32C
:100EC00099830DC0833631F0833771F0833509F093
:100ED00059C021C0F801808189830E5F1F4F88248B
:100EE0008394912C530113C02801F2E04F0E511C42
:100EF000F801A080B18036FE03C0692D70E002C009
:100F00006FEF7FEFC5010E94C9084C018201F32DEC
:100F1000FF773F2E16C0280122E0420E511CF80137
:100F2000A080B18036FE03C0692D70E002C06FEF73
:100F30007FEFC5010E94BE084C01F32DF0683F2EE3
:100F4000820133FC1BC0822D90E088169906B0F414
:100F5000B60180E290E00E94E4082A94F4CFF50103
:100F600037FC859137FE81915F01B60190E00E94C8
:100F7000E40821102A9421E0821A91088114910436
:100F800071F7E8C0843611F0893641F5F80137FE73
:100F900007C060817181828193810C5F1F4F08C0FF
:100FA00060817181072E000C880B990B0E5F1F4F1B
:100FB000F32DFF763F2E97FF09C090958095709591
:100FC00061957F4F8F4F9F4FF0683F2E2AE030E0B2
:100FD000A3010E942009882E861845C0853731F468
:100FE000232D2F7EB22E2AE030E025C0932D997F4D
:100FF000B92E8F36C1F018F4883579F0B5C0803736
:1010000019F0883721F0B0C0E92FE061BE2EB4FEA0
:101010000DC0FB2DF460BF2E09C034FE0AC0292F7D
:101020002660B22E06C028E030E005C020E130E0A6
:1010300002C020E132E0F801B7FE07C06081718193
:10104000828193810C5F1F4F06C06081718180E0B7
:1010500090E00E5F1F4FA3010E942009882E861882
:10106000FB2DFF773F2E36FE0DC0232D2E7FA22EA7
:10107000891458F434FE0BC032FC09C0832D8E7ED7
:10108000A82E05C0B82CA32C03C0B82C01C0B92CC5
:10109000A4FE0FC0FE01E80DF11D8081803321F414
:1010A0009A2D997EA92E09C0A2FE06C0B394B394CE
:1010B00004C08A2D867809F0B394A3FC11C0A0FE69
:1010C00006C0B21488F4280C922C9B180EC0B214DF
:1010D00060F4B60180E290E00E94E408B394F7CF98
:1010E000B21418F42B1802C0982C212CA4FE10C0A6
:1010F000B60180E390E00E94E408A2FE17C0A1FCC4
:1011000003C088E790E002C088E590E0B6010CC01B
:101110008A2D867859F0A1FE02C08BE201C080E2E0
:10112000A7FC8DE2B60190E00E94E408891438F42F
:10113000B60180E390E00E94E4089A94F7CF8A9485
:10114000F301E80DF11D8081B60190E00E94E408F2
:101150008110F5CF222009F442CEB60180E290E062
:101160000E94E4082A94F6CFF6018681978102C096
:101170008FEF9FEF2B96E2E10C949A09FC0105900A
:10118000615070400110D8F7809590958E0F9F1F89
:101190000895FC016150704001900110D8F78095CE
:1011A00090958E0F9F1F0895DC01FC01672F7191B0
:1011B0007723E1F7329704C07C916D93708362913D
:1011C000AE17BF07C8F308950F931F93CF93DF9314
:1011D000FB01238121FD03C08FEF9FEF2CC022FF75
:1011E00016C046815781248135814217530744F444
:1011F000A081B1819D012F5F3F4F318320838C936C
:10120000268137812F5F3F4F3783268314C08B01A0
:10121000EC01FB010084F185E02D0995892BE1F6B5
:10122000D80116968D919C911797019617969C93CD
:101230008E931697CE01DF91CF911F910F91089554
:10124000FA01AA27283051F1203181F1E8946F93F7
:101250006E7F6E5F7F4F8F4F9F4FAF4FB1E03ED09D
:10126000B4E03CD0670F781F891F9A1FA11D680F3B
:10127000791F8A1F911DA11D6A0F711D811D911D6E
:10128000A11D20D009F468943F912AE0269F1124E3
:101290003019305D3193DEF6CF010895462F477047
:1012A000405D4193B3E00FD0C9F7F6CF462F4F70A2
:1012B000405D4A3318F0495D31FD4052419302D000
:1012C000A9F7EACFB4E0A6959795879577956795A6
:1012D000BA95C9F700976105710508959B01AC01A6
:1012E0000A2E06945795479537952795BA95C9F7CD
:1012F000620F731F841F951FA01D08952F923F92A8
:101300004F925F926F927F928F929F92AF92BF9215
:10131000CF92DF92EF92FF920F931F93CF93DF93C1
:10132000CDB7DEB7CA1BDB0B0FB6F894DEBF0FBE1E
:10133000CDBF09942A88398848885F846E847D846B
:101340008C849B84AA84B984C884DF80EE80FD806D
:101350000C811B81AA81B981CE0FD11D0FB6F894E3
:0E136000DEBF0FBECDBFED010895F894FFCFA4
:10136E001E0A000600B004FDFDFDFD00EF04EE04B4
:10137E001BFEFEFEFE90EF044A3F7F04EE064390F6
:10138E00EF83090008AF0B000A00050006000700F6
:10139E00EF0CEE90EF8000B0EF024900EF017F817D
:1013AE00E102E276E283E1018090EF000008EF05B2
:1013BE0018831200150013AF1608EF001800120064
:1013CE001500130016506F6D6F646F726F2D546998
:1013DE006D6572002020202020202020202020203B
:1013EE00202000202057696C6C6B6F6D6D656E2030
:1013FE002000427574746F6E206472FC636B656EB0
:10140E0000506F74692064726568656E202020003C
:10141E0042616C6420676573636861666674004B35
:10142E006F6E7A656E74726174696F6E2100202022
:10143E0042697320676C6569636820200020202054
:10144E002020506175736520202020002020206E02
:10145E006F63686D616C3F2020200020204765730C
:10146E006368616666742120200020202120466575
:10147E00686C65722021202000253032643A2530B8
:10148E0032640A000000000000000000040E0E048A
:10149E00040004001B1B120000000000000A1F0ABB
:1014AE000A1F0A00080E100C021C0400191902046F
:1014BE00081313000814140815120D000C0C080064
:1014CE0000000000040808080808040008040404CA
:1014DE0004040800000A0E1F0E0A00000004041F78
:1014EE000404000000000000000C0C080000001FA7
:1014FE000000000000000000000C0C0000010204BF
:10150E00081000000E11131519110E00040C04041E
:10151E0004040E000E11010608101F000E11010E1C
:10152E0001110E0002060A121F0202001F10101EE9
:10153E0001110E000608101E11110E001F010204EB
:10154E00080808000E11110E11110E000E11110FC8
:10155E0001020C0000000C0C000C0C0000000C0C26
:10156E00000C0C08020408100804020000001F0002
:10157E00001F000008040201020408000E110106FB
:10158E00040004000E11171517100E000E11111F76
:10159E00111111001E11111E11111E000E1110102D
:1015AE0010110E001E11111111111E001F10101E10
:1015BE0010101F001F10101E101010000E1110170B
:1015CE0011110F001111111F111111000E0404043D
:1015DE0004040E000101010111110E001112141864
:1015EE00141211001010101010101F00111B1511E5
:1015FE001111110011191513111111000E111111E4
:10160E0011110E001E11111E101010000E111111CD
:10161E0015120D001E11111E121111000E11100EB9
:10162E0001110E001F040404040404001111111111
:10163E0011110E0011111111110A040011111515BD
:10164E0015150A0011110A040A1111001111110ABF
:10165E00040404001E02040810101E000E080808E0
:10166E0008080E0000100804020100000E0202021B
:10167E0002020E00040A110000000000000000002B
:10168E000000001F0C0C04000000000000000E0102
:10169E000F110F0010101E1111111E0000000E115F
:1016AE0010110E0001010F1111110F0000000E118B
:1016BE001F100E000608081E0808080000000F1173
:1016CE00110F010E10101C1212121200040004044D
:1016DE0004040400020006020202120C101012147E
:1016EE0018141200040404040404060000001A1561
:1016FE001511110000001C121212120000000E1122
:10170E0011110E0000001E1111111E1000000F11FC
:10171E0011110F010000160908081C0000000E1020
:10172E000E010E0000081E08080A04000000121226
:10173E0012160A0000001111110A04000000111106
:10174E00151F0A00000012120C12120000001212D5
:10175E00120E041800001E020C101E0006080818B7
:10176E000808060004040404040404000C02020326
:10177E0002020C0000000000000000000A000E0132
:10178E000F110F000A000E1111110E000A00121295
:10179E0012160A000A0E111F111111000A0E111154
:1017AE0011110E000A11111111110E000C12121C42
:0C17BE0012121C100609090600000000B1
:00000001FF
