:100000000C9481000C949E000C949E000C949E0015
:100010000C949E000C94CD030C949E000C949E00B6
:100020000C949E000C949E000C949E000C949E00D8
:100030000C949E000C949E000C9412030C949E0051
:100040000C949E000C949E000C949E000C949E00B8
:100050000C949E000C949E000C949E000C949E00A8
:100060000C949E000C949E00210523052305230576
:100070002305230523052305230523052305230540
:100080002305230523052305230523052305230530
:10009000190523052305230523052305230523052A
:1000A0002305230523052305230523052305230510
:1000B000230523051B052305230523052305230508
:1000C0001D05230523051F052305230523052305FA
:1000D00015052305230523052305230523052305EE
:1000E00023052305230523052305230523052305D0
:1000F00023052305250523052305230523052305BE
:10010000170511241FBECFEFD8E0DEBFCDBF15E02D
:10011000A0E0B1E0E4E7F2E102C005900D92AC3559
:10012000B107D9F725E0ACE5B5E001C01D92A136D5
:10013000B207E1F70E94FD030C9438090C9400000B
:1001400084B18C6284B980E58CBD089595B19B7FA4
:1001500095B98EBD0DB407FEFDCF85B1846085B91C
:100160000895CF93DF93CDB7DEB7C255D1090FB64F
:10017000F894DEBF0FBECDBF82E5E6E0F1E0DE0120
:10018000119601900D928A95E1F72FEF85EA9EE096
:10019000215080409040E1F700C000008BB11BB8B7
:1001A0002FE789EA93E0215080409040E1F700C0BA
:1001B000000085B1846085B92FE789EA93E021507A
:1001C00080409040E1F700C000008BB184608BB9A3
:1001D0002FE789EA93E0215080409040E1F700C08A
:1001E00000008BB188608BB92FE789EA93E021503A
:1001F00080409040E1F700C0000062E070E0CE0176
:1002000001960E941A042FE789EA93E0215080406A
:100210009040E1F700C000006AE070E0CE01059672
:100220000E941A042FE789EA93E021508040904011
:10023000E1F700C0000067E170E0CE0149960E943E
:100240001A042FE789EA93E0215080409040E1F7BB
:1002500000C0000066E070E0CE01895B9F4F0E9405
:100260001A04CE5ADF4F0FB6F894DEBF0FBECDBFD3
:10027000DF91CF910895CF92EF92FF920F931F934A
:10028000CF93DF93CDB7DEB72F970FB6F894DEBFCD
:100290000FBECDBF0FB6F894A8958091600088611D
:1002A00080936000109260000FBE8AB18C608AB9A2
:1002B0000E94A00078940E94B10000E010E008C005
:1002C0008FEF0E94A6008FEF0E94A6000F5F1F4FC6
:1002D000003C8AE51807A4F38FE0E4E6F1E0DE01D4
:1002E000119601900D928A95E1F70F2EF3E0CF2E33
:1002F000F02DEE24EA94FE2C00E018EF22E046E018
:1003000064E0CE0101960E94E1048AB18D7F8AB932
:100310008BB182608BB984B18D7F84B985B18260E5
:1003200085B980E480937C0087EC80937A0087B164
:100330008E6087B97894EEE6F0E08081808317BC08
:1003400084B5826084BD84B58E7F84BD85B5877F8A
:1003500085BD85B5856085BD85B58D7F85BDE8E6A4
:10036000F0E0808184608083EDE6F0E0808182604F
:10037000808300002F960FB6F894DEBF0FBECDBF6E
:10038000DF91CF911F910F91FF90EF90CF90089543
:10039000EEE6F0E08081826080838BE987BD08957E
:1003A000EEE6F0E080818D7F808317BC0895CF92C8
:1003B000EF92FF920F931F93CF93DF9382309105BB
:1003C00089F02CF4009751F0019729F11FC0843077
:1003D000910591F064F00597A1F018C0C3E7D1E052
:1003E000CE011DC0C1E9D1E080EA91E018C0CFEA9A
:1003F000D1E08EEB91E013C0CDECD1E08CED91E03B
:100400000EC0CBEED1E08AEF91E009C0C3E7D1E0A6
:1004100089E092E004C0C3E7D1E082E891E00F2ECA
:10042000F3E0CF2EF02DEE24EA94FE2C03E110E051
:1004300022E04EE564E00E94E10422E042E764E04D
:10044000CE010E94E104DF91CF911F910F91FF90A7
:10045000EF90CF900895AF92BF92CF92EF92FF921C
:100460000F931F93CF93DF9300D000D000D0CDB770
:10047000DEB76CE370E00E94D2059F938F937F9369
:100480006F9388E192E09F938F931F9286E08F9302
:10049000CE0101965C019F938F930E9430060F2E30
:1004A000F3E0CF2EF02DEE24EA94FE2C00E010E0D5
:1004B00024E04CE269E1C5010E94E1040FB6F89422
:1004C000DEBF0FBECDBF26960FB6F894DEBF0FBEBF
:1004D000CDBFDF91CF911F910F91FF90EF90CF9003
:1004E000BF90AF900895EAE7F0E080818064808358
:1004F00080917A0086FDFCCF809178009091790000
:100500000895CF93DF9300D000D01F92CDB7DEB710
:1005100082E090E00E94D70164C00E94730280389C
:10052000910538F486E090E09093050180930401F2
:1005300047C08F3F910509F038F48CED95E090931A
:100540000501809304013CC0803821E0920738F413
:1005500088E097E0909305018093040131C08115F4
:1005600022E0920738F484E398E0909305018093A9
:10057000040126C0803822E0920738F480E699E032
:1005800090930501809304011BC0811523E092071D
:1005900038F48CE89AE0909305018093040110C030
:1005A0008038934038F488EB9BE09093050180936A
:1005B000040106C084EE9CE0909305018093040141
:1005C00080910401909105010E942B024AE050E0C5
:1005D000BE016F5F7F4F80910401909105010E94E1
:1005E000000619999ACF809104019091050190938A
:1005F0005E0580935D0580E090E00E94D70188B1A0
:10060000846088B90E94C80183E090E090936005FF
:1006100080935F050F900F900F900F900F90DF91D8
:10062000CF9108951F920F920FB60F9211242F931E
:100630003F934F935F936F937F938F939F93AF936A
:10064000BF93EF93FF9380915C058F5F80935C0570
:1006500080915C05843609F08FC010925C05809112
:100660005D0590915E05019790935E0580935D0511
:100670000E942B0280915D0590915E05892B09F007
:100680007BC080915F059091600585309105F1F107
:1006900030F48330910559F00497F9F06DC086303D
:1006A000910509F449C0079709F45CC065C088B199
:1006B0008B7F88B988B18D7F88B988B1886088B907
:1006C00081E090E090935E0580935D0584E090E08A
:1006D0009093600580935F054FC088B1826088B9B0
:1006E00088B1877F88B9809102019091030190932E
:1006F0005E0580935D0584E090E00E94D70185E06F
:1007000090E09093600580935F0536C088B18B7F41
:1007100088B988B18D7F88B988B1886088B981E04F
:1007200090E090935E0580935D0586E090E0909365
:10073000600580935F0520C088B1877F88B980916C
:1007400000019091010190935E0580935D0585E025
:1007500090E00E94D70187E090E09093600580933D
:100760005F050AC00E94D00182E090E0909360058E
:1007700080935F050E948102FF91EF91BF91AF913D
:100780009F918F917F916F915F914F913F912F91A9
:100790000F900FBE0F901F9018951F920F920FB6DB
:1007A0000F9211242F933F934F935F936F937F93F7
:1007B0008F939F93AF93BF93EF93FF930E94D001CA
:1007C00010925E0510925D0582E090E090936005C6
:1007D00080935F050E948102FF91EF91BF91AF91DD
:1007E0009F918F917F916F915F914F913F912F9149
:1007F0000F900FBE0F901F901895109260051092E9
:100800005F050E943B0181E090E09093600580933A
:100810005F050E94D7011999FECF82E090E0909386
:10082000600580935F050E94D701199BFECF0E944F
:100830008102FFCFCF92DF92EF92FF920F931F932F
:10084000CF93DF936C017B0100E010E013C08BB10C
:1008500084608BB9E801CC0FDD1FCC0DDD1D8981D3
:100860000E94A60088810E94A6008BB18B7F8BB965
:100870000F5F1F4F0E151F0550F3DF91CF911F9192
:100880000F91FF90EF90DF90CF9008950F93CF934B
:10089000DF93CDB7DEB72C970FB6F894DEBF0FBE4F
:1008A000CDBF9CE0E8E5F1E0DE01119601900D92EC
:1008B0009A95E1F70230B1F1033009F44EC00130EE
:1008C00089F090E092619E838D8350E05561588756
:1008D0004F8370E073617A87698730E036613C87C7
:1008E0002B8755C0E3E0F8E1FC83EB83E3E8F0E01D
:1008F000DF01A81BB109CD0192619E838D83E41BAA
:10090000F109F561F887EF838FEA90E0AC01461BAF
:10091000510953615A874987821B910996619C87C7
:100920008B8735C0E5E0F8E1FC83EB83E3E8F0E09A
:10093000DF01A61BB109BD0172617E836D83E21BDD
:10094000F109F561F887EF8390E093619A878987D1
:1009500050E056615C874B871AC0E6E0F8E1FC8303
:10096000EB8370E072617E836D8330E035613887A0
:100970002F832FEA30E0B901681B7109CB01936125
:100980009A878987241B310936613C872B8766E06B
:1009900070E0CE0101960E941A042C960FB6F894CE
:1009A000DEBF0FBECDBFDF91CF910F910895CF93E2
:1009B000C82F892F0E94A6008C2F0E94A600CF91DD
:1009C00008952F923F924F925F926F927F928F92F3
:1009D0009F92AF92BF92CF92DF92EF92FF920F93CE
:1009E0001F93CF93DF93CDB7DEB72A970FB6F89456
:1009F000DEBF0FBECDBF9C838B83862F4D83822E9F
:100A0000902E712EC886EB81FC8140811982AFC087
:100A10004B37E0F050E0FA01E05BF109ED34F1050D
:100A200090F4EC5CFF4F0C94E6054FE70FC041E8F3
:100A30000DC042E80BC043E809C044E807C045E8E0
:100A400005C046E803C04FE301C040E840524E8372
:100A5000982D990F980D292F220F280F2A83282DC2
:100A6000220F220F220F280DFD812F0F21504A81C6
:100A7000415008856F2F0E9446042E81822F90E0FE
:100A8000FC01EE0FFF1FEE0FFF1FEE0FFF1FFF8396
:100A9000EE83412C512C5DC0EE81FF81E40DF51DEC
:100AA000ED5DFD4F6080F8E04F16510408F0612CB9
:100AB000AA24A394B12C44C0082D10E021E030E01A
:100AC0003A87298709C08E2D9F2D0E94D7048985DA
:100AD0009A8501969A878987E985FA850E171F07F7
:100AE00094F76894CC24C2F8D12C25C0862D90E0D0
:100AF0000C2C02C0959587950A94E2F780FF03C0FD
:100B0000392C272C02C03E2C2F2C21E030E03A87D4
:100B1000298709C0832D922D0E94D70489859A8543
:100B200001969A878987E985FA850E171F0794F73A
:100B3000F1E0CF1AD108DD20CCF62FEFA21AB20ACD
:100B4000882D90E08A159B0508F0B6CF3FEF431A39
:100B5000530A89E04816510408F49ECF99819F5F9B
:100B60009983EB81FC81E90FF11D40818A8141115C
:100B70004FCF2A960FB6F894DEBF0FBECDBFDF91E0
:100B8000CF911F910F91FF90EF90DF90CF90BF908A
:100B9000AF909F908F907F906F905F904F903F901D
:100BA0002F90089597FB072E16F4009407D077FD39
:100BB00009D00E94EC0507FC05D03EF49095819584
:100BC0009F4F0895709561957F4F0895EE0FFF1F19
:100BD0000590F491E02D0994AA1BBB1B51E107C0BD
:100BE000AA1FBB1FA617B70710F0A61BB70B881FBD
:100BF000991F5A95A9F780959095BC01CD0108954C
:100C00004532510520F4423010F00C940B06FB01E4
:100C10001082CB010895BB274A3031F4992322F486
:100C2000BDE2909581959F4F0C941706BB27FB0161
:100C30005527AA27880F991FAA1FA41710F0A41BD5
:100C400083955051B9F7A05DAA3308F0A95DA1932F
:100C5000009779F7B111B1931192CB010C94570819
:100C6000AEE0B0E0E6E3F6E00C940F090D891E89D2
:100C70008F89988D26E02C831A83098397FF02C001
:100C800080E090E801979E838D83AE01455E5F4FC3
:100C9000698D7A8DCE0101960E9460064D815E813C
:100CA00057FD0AC02F813885421753070CF49A016B
:100CB000F801E20FF31F10822E96E4E00C942B094A
:100CC000ABE0B0E0E6E6F6E00C9401096C017B01D4
:100CD0008A01FC0117821682838181FFCCC1CE017B
:100CE00001963C01F6019381F70193FD859193FFF5
:100CF00081917F01882309F4BAC1853239F493FDCB
:100D0000859193FF81917F01853229F4B60190E0AE
:100D10000E946708E7CF912C212C312CFFE1F315BD
:100D2000D8F08B3279F038F4803279F08332A1F444
:100D3000232D20611DC08D3261F0803369F4232D95
:100D4000216016C0832D8260382EE32DE4603E2E94
:100D50002AC0F32DF8601DC037FC2DC020ED280FF0
:100D60002A3040F08E32B9F436FC81C1232D206444
:100D7000322E19C036FE06C08AE0989E200D11243E
:100D8000922E11C0EAE02E9E200D1124222EF32D6A
:100D9000F0623F2E08C08C3621F4832D8068382EF7
:100DA00002C0883641F4F70193FD859193FF81914C
:100DB0007F018111B3CF982F9F7D9554933028F4F4
:100DC0000C5F1F4F9FE399830DC0833631F083374B
:100DD00071F0833509F059C021C0F8018081898301
:100DE0000E5F1F4F88248394912C530113C0280158
:100DF000F2E04F0E511CF801A080B18036FE03C016
:100E0000692D70E002C06FEF7FEFC5010E944C08B2
:100E10004C018201F32DFF773F2E16C0280122E0FE
:100E2000420E511CF801A080B18036FE03C0692D2E
:100E300070E002C06FEF7FEFC5010E9441084C01D6
:100E4000F32DF0683F2E820133FC1BC0822D90E011
:100E500088169906B0F4B60180E290E00E94670817
:100E60002A94F4CFF50137FC859137FE81915F011B
:100E7000B60190E00E94670821102A9421E0821AAE
:100E800091088114910471F7E8C0843611F0893615
:100E900041F5F80137FE07C060817181828193813D
:100EA0000C5F1F4F08C060817181072E000C880BFA
:100EB000990B0E5F1F4FF32DFF763F2E97FF09C052
:100EC00090958095709561957F4F8F4F9F4FF068FB
:100ED0003F2E2AE030E0A3010E94A308882E861846
:100EE00045C0853731F4232D2F7EB22E2AE030E025
:100EF00025C0932D997FB92E8F36C1F018F488350F
:100F000079F0B5C0803719F0883721F0B0C0E92FEB
:100F1000E061BE2EB4FE0DC0FB2DF460BF2E09C0F3
:100F200034FE0AC0292F2660B22E06C028E030E029
:100F300005C020E130E002C020E132E0F801B7FE58
:100F400007C060817181828193810C5F1F4F06C051
:100F50006081718180E090E00E5F1F4FA3010E94CD
:100F6000A308882E8618FB2DFF773F2E36FE0DC076
:100F7000232D2E7FA22E891458F434FE0BC032FC90
:100F800009C0832D8E7EA82E05C0B82CA32C03C0CB
:100F9000B82C01C0B92CA4FE0FC0FE01E80DF11D54
:100FA0008081803321F49A2D997EA92E09C0A2FE5A
:100FB00006C0B394B39404C08A2D867809F0B39424
:100FC000A3FC11C0A0FE06C0B21488F4280C922C19
:100FD0009B180EC0B21460F4B60180E290E00E944B
:100FE0006708B394F7CFB21418F42B1802C0982CEA
:100FF000212CA4FE10C0B60180E390E00E94670897
:10100000A2FE17C0A1FC03C088E790E002C088E5FB
:1010100090E0B6010CC08A2D867859F0A1FE02C07E
:101020008BE201C080E2A7FC8DE2B60190E00E9455
:101030006708891438F4B60180E390E00E946708DD
:101040009A94F7CF8A94F301E80DF11D8081B601DF
:1010500090E00E9467088110F5CF222009F442CE6B
:10106000B60180E290E00E9467082A94F6CFF6016C
:101070008681978102C08FEF9FEF2B96E2E10C945F
:101080001D09FC010590615070400110D8F7809552
:1010900090958E0F9F1F0895FC0161507040019044
:1010A0000110D8F7809590958E0F9F1F0895DC0151
:1010B000FC01672F71917723E1F7329704C07C918F
:1010C0006D9370836291AE17BF07C8F308950F93B5
:1010D0001F93CF93DF93FB01238121FD03C08FEF8B
:1010E0009FEF2CC022FF16C0468157812481358195
:1010F0004217530744F4A081B1819D012F5F3F4FF8
:10110000318320838C93268137812F5F3F4F378334
:10111000268314C08B01EC01FB010084F185E02DD6
:101120000995892BE1F6D80116968D919C91179718
:10113000019617969C938E931697CE01DF91CF91CF
:101140001F910F910895FA01AA27283051F12031FB
:1011500081F1E8946F936E7F6E5F7F4F8F4F9F4F4B
:10116000AF4FB1E03ED0B4E03CD0670F781F891F8D
:101170009A1FA11D680F791F8A1F911DA11D6A0F5B
:10118000711D811D911DA11D20D009F468943F910E
:101190002AE0269F11243019305D3193DEF6CF010D
:1011A0000895462F4770405D4193B3E00FD0C9F7D3
:1011B000F6CF462F4F70405D4A3318F0495D31FD40
:1011C0004052419302D0A9F7EACFB4E0A695979593
:1011D000879577956795BA95C9F700976105710569
:1011E00008959B01AC010A2E0694579547953795B3
:1011F0002795BA95C9F7620F731F841F951FA01D0D
:1012000008952F923F924F925F926F927F928F92AA
:101210009F92AF92BF92CF92DF92EF92FF920F9385
:101220001F93CF93DF93CDB7DEB7CA1BDB0B0FB68F
:10123000F894DEBF0FBECDBF09942A88398848884C
:101240005F846E847D848C849B84AA84B984C884E2
:10125000DF80EE80FD800C811B81AA81B981CE0FD9
:10126000D11D0FB6F894DEBF0FBECDBFED010895BE
:04127000F894FFCF20
:101274000A000600B004FDFDFDFD00EF04EE041BB2
:10128400FEFEFEFE90EF044A3F7F04EE064390EF1D
:1012940083090008AF0B000A00050006000700EFF1
:1012A4000CEE90EF8000B0EF024900EF017F81E186
:1012B40002E276E283E1018090EF000008EF051876
:1012C400831200150013AF1608EF00180012001562
:1012D40000130016506F6D6F646F726F2D54696D3B
:1012E4006572002020202020202020202020202083
:1012F4002000202057696C6C6B6F6D6D656E20202B
:1013040000427574746F6E206472FC636B656E00CA
:10131400506F74692064726568656E2020200042F5
:10132400616C6420676573636861666674004B6F03
:101334006E7A656E74726174696F6E21002020424A
:10134400697320676C656963682020002020202071
:1013540020506175736520202020002020206E6FAE
:1013640063686D616C3F2020200020204765736313
:10137400686166667421202000202021204665686B
:101384006C65722021202000253032643A253032E9
:10139400640A000000000000000000040E0E0404B3
:1013A4000004001B1B120000000000000A1F0A0AB0
:1013B4001F0A00080E100C021C040019190204086C
:1013C4001313000814140815120D000C0C08000067
:1013D40000000004080808080804000804040404C1
:1013E400040800000A0E1F0E0A00000004041F0473
:1013F40004000000000000000C0C080000001F00A6
:1014040000000000000000000C0C000001020408B1
:101414001000000E11131519110E00040C0404041D
:10142400040E000E11010608101F000E11010E011A
:10143400110E0002060A121F0202001F10101E01E4
:10144400110E000608101E11110E001F01020408DF
:101454000808000E11110E11110E000E11110F01CA
:10146400020C0000000C0C000C0C0000000C0C0022
:101474000C0C08020408100804020000001F0000FD
:101484001F000008040201020408000E11010604F2
:101494000004000E11171517100E000E11111F1164
:1014A4001111001E11111E11111E000E1110101029
:1014B400110E001E11111111111E001F10101E100B
:1014C400101F001F10101E101010000E1110171105
:1014D400110F001111111F111111000E0404040445
:1014E400040E000101010111110E0011121418144F
:1014F4001211001010101010101F00111B151111E3
:1015040011110011191513111111000E11111111DE
:10151400110E001E11111E101010000E11111115C4
:10152400120D001E11111E121111000E11100E01C8
:10153400110E001F040404040404001111111111FC
:10154400110E0011111111110A04001111151515B4
:10155400150A0011110A040A1111001111110A04CB
:101564000404001E02040810101E000E08080808D7
:10157400080E0000100804020100000E020202021C
:10158400020E00040A110000000000000000000028
:1015940000001F0C0C04000000000000000E010FEE
:1015A400110F0010101E1111111E0000000E111059
:1015B400110E0001010F1111110F0000000E111F77
:1015C400100E000608081E0808080000000F11117C
:1015D4000F010E10101C1212121200040004040455
:1015E400040400020006020202120C101012141865
:1015F400141200040404040404060000001A15155F
:1016040011110000001C121212120000000E111120
:10161400110E0000001E1111111E1000000F1111F7
:10162400110F010000160908081C0000000E100E1E
:10163400010E0000081E08080A040000001212121D
:10164400160A0000001111110A04000000111115FE
:101654001F0A00000012120C1212000000121212D3
:101664000E041800001E020C101E000608081808BC
:1016740008060004040404040404000C0202030227
:10168400020C0000000000000000000A000E010F20
:10169400110F000A000E1111110E000A001212128D
:1016A400160A000A0E111F111111000A0E11111150
:1016B400110E000A11111111110E000C12121C123C
:0C16C400121C10060909060000000000BE
:00000001FF
