S01B00005446545F446973706C61795F536368726966742E73726563B4
S11300000C9481000C949E000C949E000C949E0011
S11300100C949E000C949E000C949E000C949E00E4
S11300200C949E000C949E000C949E000C949E00D4
S11300300C949E000C949E000C949E000C949E00C4
S11300400C949E000C949E000C949E000C949E00B4
S11300500C949E000C949E000C949E000C949E00A4
S11300600C949E000C949E00A102A302A302A3027E
S1130070A302A302A302A302A302A302A302A30254
S1130080A302A302A302A302A302A302A302A30244
S11300909902A302A302A302A302A302A302A3023E
S11300A0A302A302A302A302A302A302A302A30224
S11300B0A302A3029B02A302A302A302A302A3021C
S11300C09D02A302A3029F02A302A302A302A3020E
S11300D09502A302A302A302A302A302A302A30202
S11300E0A302A302A302A302A302A302A302A302E4
S11300F0A302A302A502A302A302A302A302A302D2
S1130100970211241FBECFEFD8E0DEBFCDBF14E0AD
S1130110A0E0B1E0E4EBF6E002C005900D92A03C53
S1130120B107D9F724E0A0ECB4E001C01D92A03CD3
S1130130B207E1F70E943B010C9458030C940000B1
S113014084B18C6284B980E58CBD089595B19B7FA0
S113015095B98EBD0DB407FEFDCF85B1846085B918
S11301600895CF93DF93CDB7DEB7C255D1090FB64B
S1130170F894DEBF0FBECDBF82E5E0E0F1E0DE0122
S1130180119601900D928A95E1F72FEF85EA9EE092
S1130190215080409040E1F700C000008BB11BB8B3
S11301A02FE789EA93E0215080409040E1F700C0B6
S11301B0000085B1846085B92FE789EA93E0215076
S11301C080409040E1F700C000008BB184608BB99F
S11301D02FE789EA93E0215080409040E1F700C086
S11301E000008BB188608BB92FE789EA93E0215036
S11301F080409040E1F700C0000062E070E0CE0172
S113020001960E949A012FE789EA93E021508040E9
S11302109040E1F700C000006AE070E0CE0105966E
S11302200E949A012FE789EA93E021508040904090
S1130230E1F700C0000067E170E0CE0149960E943A
S11302409A012FE789EA93E0215080409040E1F73A
S113025000C0000066E070E0CE01895B9F4F0E9401
S11302609A01CE5ADF4F0FB6F894DEBF0FBECDBF52
S1130270DF91CF910895CF93DF93CDB7DEB7A997E0
S11302800FB6F894DEBF0FBECDBF8FE0EEE5F1E010
S1130290DE01119601900D928A95E1F78DE0EDE66D
S11302A0F1E0DE01509601900D928A95E1F78DE020
S11302B0EAE7F1E0DE015D9601900D928A95E1F79F
S11302C08AB18C608AB90E94A00078940E94B1001F
S11302D000E010E008C08FEF0E94A6008FEF0E949C
S11302E0A6000F5F1F4F003C8AE51807A4F30F2EEA
S11302F0F3E0CF2EF02DEE24EA94FE2C0FE113E36D
S113030022E04AE066E0CE0101960E94610200E02C
S113031018EF22E04DE268E0CE0140960E946102AF
S113032006EC1CEF22E040E568E0CE014D960E9409
S11303306102FFCFCF92DF92EF92FF920F931F9350
S1130340CF93DF936C017B0100E010E013C08BB10D
S113035084608BB9E801CC0FDD1FCC0DDD1D8981D4
S11303600E94A60088810E94A6008BB18B7F8BB966
S11303700F5F1F4F0E151F0550F3DF91CF911F9193
S11303800F91FF90EF90DF90CF9008950F93CF934C
S1130390DF93CDB7DEB72C970FB6F894DEBF0FBE50
S11303A0CDBF9CE0E2E5F1E0DE01119601900D92F3
S11303B09A95E1F70230B1F1033009F44EC00130EF
S11303C089F090E092619E838D8350E05561588757
S11303D04F8370E073617A87698730E036613C87C8
S11303E02B8755C0E3E0F8E1FC83EB83E3E8F0E01E
S11303F0DF01A81BB109CD0192619E838D83E41BAB
S1130400F109F561F887EF838FEA90E0AC01461BB0
S1130410510953615A874987821B910996619C87C8
S11304208B8735C0E5E0F8E1FC83EB83E3E8F0E09B
S1130430DF01A61BB109BD0172617E836D83E21BDE
S1130440F109F561F887EF8390E093619A878987D2
S113045050E056615C874B871AC0E6E0F8E1FC8304
S1130460EB8370E072617E836D8330E035613887A1
S11304702F832FEA30E0B901681B7109CB01936126
S11304809A878987241B310936613C872B8766E06C
S113049070E0CE0101960E949A012C960FB6F89452
S11304A0DEBF0FBECDBFDF91CF910F910895CF93E3
S11304B0C82F892F0E94A6008C2F0E94A600CF91DE
S11304C008952F923F924F925F926F927F928F92F4
S11304D09F92AF92BF92CF92DF92EF92FF920F93CF
S11304E01F93CF93DF93CDB7DEB72A970FB6F89457
S11304F0DEBF0FBECDBF9C838B83862F4D83822EA0
S1130500902E712EC886EB81FC8140811982AFC088
S11305104B37E0F050E0FA01E05BF109ED34F1050E
S113052090F4EC5CFF4F0C9452034FE70FC041E88A
S11305300DC042E80BC043E809C044E807C045E8E1
S113054005C046E803C04FE301C040E840524E8373
S1130550982D990F980D292F220F280F2A83282DC3
S1130560220F220F220F280DFD812F0F21504A81C7
S1130570415008856F2F0E94C6012E81822F90E082
S1130580FC01EE0FFF1FEE0FFF1FEE0FFF1FFF8397
S1130590EE83412C512C5DC0EE81FF81E40DF51DED
S11305A0E957FE4F6080F8E04F16510408F0612CC3
S11305B0AA24A394B12C44C0082D10E021E030E01B
S11305C03A87298709C08E2D9F2D0E94570289855D
S11305D09A8501969A878987E985FA850E171F07F8
S11305E094F76894CC24C2F8D12C25C0862D90E0D1
S11305F00C2C02C0959587950A94E2F780FF03C0FE
S1130600392C272C02C03E2C2F2C21E030E03A87D5
S1130610298709C0832D922D0E94570289859A85C6
S113062001969A878987E985FA850E171F0794F73B
S1130630F1E0CF1AD108DD20CCF62FEFA21AB20ACE
S1130640882D90E08A159B0508F0B6CF3FEF431A3A
S1130650530A89E04816510408F49ECF99819F5F9C
S11306609983EB81FC81E90FF11D40818A8141115D
S11306704FCF2A960FB6F894DEBF0FBECDBFDF91E1
S1130680CF911F910F91FF90EF90DF90CF90BF908B
S1130690AF909F908F907F906F905F904F903F901E
S11306A02F900895EE0FFF1F0590F491E02D09940B
S10706B0F894FFCFE8
S11306B4FDFDFDFD00EF04EE041BFEFEFEFE90EFC7
S11306C4044A3F7F04EE064390EF83090008AF0B0E
S11306D4000A00050006000700EF0CEE90EF80000E
S11306E4B0EF024900EF017F81E102E276E283E1A7
S11306F4018090EF000008EF051883120015001321
S1130704AF1608EF001800120015001300164D650B
S11307146469612053797374656D733A00496E6634
S11307246F726D6174696B2033002620456C656BB0
S113073474726F6E696B0000000000000000000416
S11307440E0E04040004001B1B1200000000000031
S11307540A1F0A0A1F0A00080E100C021C040019BE
S1130764190204081313000814140815120D000CBC
S11307740C08000000000004080808080804000825
S113078404040404040800000A0E1F0E0A000000F6
S113079404041F0404000000000000000C0C080002
S11307A400001F0000000000000000000C0C00000A
S11307B4010204081000000E11131519110E00048F
S11307C40C040404040E000E11010608101F000E8C
S11307D411010E01110E0002060A121F0202001F6B
S11307E410101E01110E000608101E11110E001F18
S11307F4010204080808000E11110E11110E000E56
S113080411110F01020C0000000C0C000C0C000070
S1130814000C0C000C0C080204081008040200006C
S1130824001F00001F000008040201020408000E57
S1130834110106040004000E11171517100E000E02
S113084411111F111111001E11111E11111E000E80
S113085411101010110E001E11111111111E001F80
S113086410101E10101F001F10101E101010000E68
S113087411101711110F001111111F111111000E74
S113088404040404040E000101010111110E0011F9
S1130894121418141211001010101010101F00114B
S11308A41B15111111110011191513111111000E39
S11308B411111111110E001E11111E101010000E31
S11308C411111115120D001E11111E121111000E19
S11308D411100E01110E001F040404040404001179
S11308E411111111110E0011111111110A04001129
S11308F411151515150A0011110A040A1111001114
S113090411110A040404001E02040810101E000E2F
S113091408080808080E0000100804020100000E6C
S113092402020202020E00040A1100000000000088
S11309340000000000001F0C0C0400000000000074
S1130944000E010F110F0010101E1111111E0000D2
S1130954000E1110110E0001010F1111110F0000EE
S1130964000E111F100E000608081E0808080000D7
S1130974000F11110F010E10101C12121212000498
S113098400040404040400020006020202120C100F
S113099410121418141200040404040404060000BD
S11309A4001A151511110000001C12121212000075
S11309B4000E1111110E0000001E1111111E100061
S11309C4000F1111110F010000160908081C000082
S11309D4000E100E010E0000081E08080A04000090
S11309E400121212160A0000001111110A04000068
S11309F4001111151F0A00000012120C121200003B
S1130A04001212120E041800001E020C101E00061E
S1130A140808180808060004040404040404000C68
S1130A2402020302020C0000000000000000000A9D
S1130A34000E010F110F000A000E1111110E000A0D
S1130A4400121212160A000A0E111F111111000AC3
S1130A540E111111110E000A11111111110E000CB5
S1130A6412121C12121C10060909060000000000D0
S9030000FC
